{
  "_format": "hh-sol-artifact-1",
  "contractName": "TheRainbowTribe",
  "sourceName": "contracts/TheRainbowTribe.sol",
  "abi": [
    {
      "inputs": [
        {
          "internalType": "string",
          "name": "_initBaseURI",
          "type": "string"
        }
      ],
      "stateMutability": "nonpayable",
      "type": "constructor"
    },
    {
      "inputs": [],
      "name": "ApprovalCallerNotOwnerNorApproved",
      "type": "error"
    },
    {
      "inputs": [],
      "name": "ApprovalQueryForNonexistentToken",
      "type": "error"
    },
    {
      "inputs": [],
      "name": "BalanceQueryForZeroAddress",
      "type": "error"
    },
    {
      "inputs": [],
      "name": "InsufficientFunds",
      "type": "error"
    },
    {
      "inputs": [],
      "name": "MintERC2309QuantityExceedsLimit",
      "type": "error"
    },
    {
      "inputs": [],
      "name": "MintToZeroAddress",
      "type": "error"
    },
    {
      "inputs": [],
      "name": "MintZeroQuantity",
      "type": "error"
    },
    {
      "inputs": [],
      "name": "OwnerQueryForNonexistentToken",
      "type": "error"
    },
    {
      "inputs": [],
      "name": "OwnershipNotInitializedForExtraData",
      "type": "error"
    },
    {
      "inputs": [],
      "name": "TransferCallerNotOwnerNorApproved",
      "type": "error"
    },
    {
      "inputs": [],
      "name": "TransferFromIncorrectOwner",
      "type": "error"
    },
    {
      "inputs": [],
      "name": "TransferToNonERC721ReceiverImplementer",
      "type": "error"
    },
    {
      "inputs": [],
      "name": "TransferToZeroAddress",
      "type": "error"
    },
    {
      "inputs": [],
      "name": "URIQueryForNonexistentToken",
      "type": "error"
    },
    {
      "anonymous": false,
      "inputs": [
        {
          "indexed": true,
          "internalType": "address",
          "name": "owner",
          "type": "address"
        },
        {
          "indexed": true,
          "internalType": "address",
          "name": "approved",
          "type": "address"
        },
        {
          "indexed": true,
          "internalType": "uint256",
          "name": "tokenId",
          "type": "uint256"
        }
      ],
      "name": "Approval",
      "type": "event"
    },
    {
      "anonymous": false,
      "inputs": [
        {
          "indexed": true,
          "internalType": "address",
          "name": "owner",
          "type": "address"
        },
        {
          "indexed": true,
          "internalType": "address",
          "name": "operator",
          "type": "address"
        },
        {
          "indexed": false,
          "internalType": "bool",
          "name": "approved",
          "type": "bool"
        }
      ],
      "name": "ApprovalForAll",
      "type": "event"
    },
    {
      "anonymous": false,
      "inputs": [
        {
          "indexed": true,
          "internalType": "uint256",
          "name": "fromTokenId",
          "type": "uint256"
        },
        {
          "indexed": false,
          "internalType": "uint256",
          "name": "toTokenId",
          "type": "uint256"
        },
        {
          "indexed": true,
          "internalType": "address",
          "name": "from",
          "type": "address"
        },
        {
          "indexed": true,
          "internalType": "address",
          "name": "to",
          "type": "address"
        }
      ],
      "name": "ConsecutiveTransfer",
      "type": "event"
    },
    {
      "anonymous": false,
      "inputs": [
        {
          "indexed": true,
          "internalType": "address",
          "name": "previousOwner",
          "type": "address"
        },
        {
          "indexed": true,
          "internalType": "address",
          "name": "newOwner",
          "type": "address"
        }
      ],
      "name": "OwnershipTransferred",
      "type": "event"
    },
    {
      "anonymous": false,
      "inputs": [
        {
          "indexed": true,
          "internalType": "address",
          "name": "from",
          "type": "address"
        },
        {
          "indexed": true,
          "internalType": "address",
          "name": "to",
          "type": "address"
        },
        {
          "indexed": true,
          "internalType": "uint256",
          "name": "tokenId",
          "type": "uint256"
        }
      ],
      "name": "Transfer",
      "type": "event"
    },
    {
      "inputs": [],
      "name": "MaxperTxWL",
      "outputs": [
        {
          "internalType": "uint256",
          "name": "",
          "type": "uint256"
        }
      ],
      "stateMutability": "view",
      "type": "function"
    },
    {
      "inputs": [],
      "name": "MaxperWallet",
      "outputs": [
        {
          "internalType": "uint256",
          "name": "",
          "type": "uint256"
        }
      ],
      "stateMutability": "view",
      "type": "function"
    },
    {
      "inputs": [],
      "name": "MaxperWalletWL",
      "outputs": [
        {
          "internalType": "uint256",
          "name": "",
          "type": "uint256"
        }
      ],
      "stateMutability": "view",
      "type": "function"
    },
    {
      "inputs": [
        {
          "internalType": "uint256",
          "name": "tokens",
          "type": "uint256"
        },
        {
          "internalType": "bytes32[]",
          "name": "merkleProof",
          "type": "bytes32[]"
        }
      ],
      "name": "WLMint",
      "outputs": [],
      "stateMutability": "payable",
      "type": "function"
    },
    {
      "inputs": [
        {
          "internalType": "address",
          "name": "to",
          "type": "address"
        },
        {
          "internalType": "uint256",
          "name": "tokenId",
          "type": "uint256"
        }
      ],
      "name": "approve",
      "outputs": [],
      "stateMutability": "payable",
      "type": "function"
    },
    {
      "inputs": [
        {
          "internalType": "address",
          "name": "owner",
          "type": "address"
        }
      ],
      "name": "balanceOf",
      "outputs": [
        {
          "internalType": "uint256",
          "name": "",
          "type": "uint256"
        }
      ],
      "stateMutability": "view",
      "type": "function"
    },
    {
      "inputs": [],
      "name": "baseExtension",
      "outputs": [
        {
          "internalType": "string",
          "name": "",
          "type": "string"
        }
      ],
      "stateMutability": "view",
      "type": "function"
    },
    {
      "inputs": [],
      "name": "baseURI",
      "outputs": [
        {
          "internalType": "string",
          "name": "",
          "type": "string"
        }
      ],
      "stateMutability": "view",
      "type": "function"
    },
    {
      "inputs": [],
      "name": "cost",
      "outputs": [
        {
          "internalType": "uint256",
          "name": "",
          "type": "uint256"
        }
      ],
      "stateMutability": "view",
      "type": "function"
    },
    {
      "inputs": [],
      "name": "firstCost",
      "outputs": [
        {
          "internalType": "uint256",
          "name": "",
          "type": "uint256"
        }
      ],
      "stateMutability": "view",
      "type": "function"
    },
    {
      "inputs": [
        {
          "internalType": "uint256",
          "name": "tokenId",
          "type": "uint256"
        }
      ],
      "name": "getApproved",
      "outputs": [
        {
          "internalType": "address",
          "name": "",
          "type": "address"
        }
      ],
      "stateMutability": "view",
      "type": "function"
    },
    {
      "inputs": [
        {
          "internalType": "uint256",
          "name": "_mintAmount",
          "type": "uint256"
        },
        {
          "internalType": "address",
          "name": "destination",
          "type": "address"
        }
      ],
      "name": "gift",
      "outputs": [],
      "stateMutability": "nonpayable",
      "type": "function"
    },
    {
      "inputs": [
        {
          "internalType": "address",
          "name": "owner",
          "type": "address"
        },
        {
          "internalType": "address",
          "name": "operator",
          "type": "address"
        }
      ],
      "name": "isApprovedForAll",
      "outputs": [
        {
          "internalType": "bool",
          "name": "",
          "type": "bool"
        }
      ],
      "stateMutability": "view",
      "type": "function"
    },
    {
      "inputs": [],
      "name": "maxSupply",
      "outputs": [
        {
          "internalType": "uint256",
          "name": "",
          "type": "uint256"
        }
      ],
      "stateMutability": "view",
      "type": "function"
    },
    {
      "inputs": [],
      "name": "merkleRoot",
      "outputs": [
        {
          "internalType": "bytes32",
          "name": "",
          "type": "bytes32"
        }
      ],
      "stateMutability": "view",
      "type": "function"
    },
    {
      "inputs": [],
      "name": "name",
      "outputs": [
        {
          "internalType": "string",
          "name": "",
          "type": "string"
        }
      ],
      "stateMutability": "view",
      "type": "function"
    },
    {
      "inputs": [],
      "name": "notRevealedUri",
      "outputs": [
        {
          "internalType": "string",
          "name": "",
          "type": "string"
        }
      ],
      "stateMutability": "view",
      "type": "function"
    },
    {
      "inputs": [
        {
          "internalType": "address",
          "name": "owner",
          "type": "address"
        }
      ],
      "name": "numberMinted",
      "outputs": [
        {
          "internalType": "uint256",
          "name": "",
          "type": "uint256"
        }
      ],
      "stateMutability": "view",
      "type": "function"
    },
    {
      "inputs": [],
      "name": "owner",
      "outputs": [
        {
          "internalType": "address",
          "name": "",
          "type": "address"
        }
      ],
      "stateMutability": "view",
      "type": "function"
    },
    {
      "inputs": [
        {
          "internalType": "uint256",
          "name": "tokenId",
          "type": "uint256"
        }
      ],
      "name": "ownerOf",
      "outputs": [
        {
          "internalType": "address",
          "name": "",
          "type": "address"
        }
      ],
      "stateMutability": "view",
      "type": "function"
    },
    {
      "inputs": [
        {
          "internalType": "bool",
          "name": "_state",
          "type": "bool"
        }
      ],
      "name": "pause",
      "outputs": [],
      "stateMutability": "nonpayable",
      "type": "function"
    },
    {
      "inputs": [],
      "name": "paused",
      "outputs": [
        {
          "internalType": "bool",
          "name": "",
          "type": "bool"
        }
      ],
      "stateMutability": "view",
      "type": "function"
    },
    {
      "inputs": [],
      "name": "publicSale",
      "outputs": [
        {
          "internalType": "bool",
          "name": "",
          "type": "bool"
        }
      ],
      "stateMutability": "view",
      "type": "function"
    },
    {
      "inputs": [
        {
          "internalType": "uint256",
          "name": "tokens",
          "type": "uint256"
        }
      ],
      "name": "publicSaleMint",
      "outputs": [],
      "stateMutability": "payable",
      "type": "function"
    },
    {
      "inputs": [],
      "name": "renounceOwnership",
      "outputs": [],
      "stateMutability": "nonpayable",
      "type": "function"
    },
    {
      "inputs": [
        {
          "internalType": "bool",
          "name": "_state",
          "type": "bool"
        }
      ],
      "name": "reveal",
      "outputs": [],
      "stateMutability": "nonpayable",
      "type": "function"
    },
    {
      "inputs": [],
      "name": "revealed",
      "outputs": [
        {
          "internalType": "bool",
          "name": "",
          "type": "bool"
        }
      ],
      "stateMutability": "view",
      "type": "function"
    },
    {
      "inputs": [
        {
          "internalType": "address",
          "name": "from",
          "type": "address"
        },
        {
          "internalType": "address",
          "name": "to",
          "type": "address"
        },
        {
          "internalType": "uint256",
          "name": "tokenId",
          "type": "uint256"
        }
      ],
      "name": "safeTransferFrom",
      "outputs": [],
      "stateMutability": "payable",
      "type": "function"
    },
    {
      "inputs": [
        {
          "internalType": "address",
          "name": "from",
          "type": "address"
        },
        {
          "internalType": "address",
          "name": "to",
          "type": "address"
        },
        {
          "internalType": "uint256",
          "name": "tokenId",
          "type": "uint256"
        },
        {
          "internalType": "bytes",
          "name": "_data",
          "type": "bytes"
        }
      ],
      "name": "safeTransferFrom",
      "outputs": [],
      "stateMutability": "payable",
      "type": "function"
    },
    {
      "inputs": [
        {
          "internalType": "address",
          "name": "operator",
          "type": "address"
        },
        {
          "internalType": "bool",
          "name": "approved",
          "type": "bool"
        }
      ],
      "name": "setApprovalForAll",
      "outputs": [],
      "stateMutability": "nonpayable",
      "type": "function"
    },
    {
      "inputs": [
        {
          "internalType": "string",
          "name": "_newBaseExtension",
          "type": "string"
        }
      ],
      "name": "setBaseExtension",
      "outputs": [],
      "stateMutability": "nonpayable",
      "type": "function"
    },
    {
      "inputs": [
        {
          "internalType": "string",
          "name": "_newBaseURI",
          "type": "string"
        }
      ],
      "name": "setBaseURI",
      "outputs": [],
      "stateMutability": "nonpayable",
      "type": "function"
    },
    {
      "inputs": [
        {
          "internalType": "uint256",
          "name": "_newCost",
          "type": "uint256"
        }
      ],
      "name": "setCost",
      "outputs": [],
      "stateMutability": "nonpayable",
      "type": "function"
    },
    {
      "inputs": [
        {
          "internalType": "uint256",
          "name": "_limit",
          "type": "uint256"
        }
      ],
      "name": "setMaxPerWallet",
      "outputs": [],
      "stateMutability": "nonpayable",
      "type": "function"
    },
    {
      "inputs": [
        {
          "internalType": "uint256",
          "name": "_limit",
          "type": "uint256"
        }
      ],
      "name": "setMaxperWalletWL",
      "outputs": [],
      "stateMutability": "nonpayable",
      "type": "function"
    },
    {
      "inputs": [
        {
          "internalType": "uint256",
          "name": "_newsupply",
          "type": "uint256"
        }
      ],
      "name": "setMaxsupply",
      "outputs": [],
      "stateMutability": "nonpayable",
      "type": "function"
    },
    {
      "inputs": [
        {
          "internalType": "bytes32",
          "name": "_merkleRoot",
          "type": "bytes32"
        }
      ],
      "name": "setMerkleRoot",
      "outputs": [],
      "stateMutability": "nonpayable",
      "type": "function"
    },
    {
      "inputs": [
        {
          "internalType": "string",
          "name": "_notRevealedURI",
          "type": "string"
        }
      ],
      "name": "setNotRevealedURI",
      "outputs": [],
      "stateMutability": "nonpayable",
      "type": "function"
    },
    {
      "inputs": [
        {
          "internalType": "uint256",
          "name": "_newwlCost",
          "type": "uint256"
        }
      ],
      "name": "setWlCost",
      "outputs": [],
      "stateMutability": "nonpayable",
      "type": "function"
    },
    {
      "inputs": [
        {
          "internalType": "bytes4",
          "name": "interfaceId",
          "type": "bytes4"
        }
      ],
      "name": "supportsInterface",
      "outputs": [
        {
          "internalType": "bool",
          "name": "",
          "type": "bool"
        }
      ],
      "stateMutability": "view",
      "type": "function"
    },
    {
      "inputs": [],
      "name": "symbol",
      "outputs": [
        {
          "internalType": "string",
          "name": "",
          "type": "string"
        }
      ],
      "stateMutability": "view",
      "type": "function"
    },
    {
      "inputs": [
        {
          "internalType": "bool",
          "name": "_state",
          "type": "bool"
        }
      ],
      "name": "togglepublicSale",
      "outputs": [],
      "stateMutability": "nonpayable",
      "type": "function"
    },
    {
      "inputs": [
        {
          "internalType": "bool",
          "name": "_state",
          "type": "bool"
        }
      ],
      "name": "togglewlMint",
      "outputs": [],
      "stateMutability": "nonpayable",
      "type": "function"
    },
    {
      "inputs": [
        {
          "internalType": "uint256",
          "name": "tokenId",
          "type": "uint256"
        }
      ],
      "name": "tokenURI",
      "outputs": [
        {
          "internalType": "string",
          "name": "",
          "type": "string"
        }
      ],
      "stateMutability": "view",
      "type": "function"
    },
    {
      "inputs": [],
      "name": "totalSupply",
      "outputs": [
        {
          "internalType": "uint256",
          "name": "",
          "type": "uint256"
        }
      ],
      "stateMutability": "view",
      "type": "function"
    },
    {
      "inputs": [
        {
          "internalType": "address",
          "name": "from",
          "type": "address"
        },
        {
          "internalType": "address",
          "name": "to",
          "type": "address"
        },
        {
          "internalType": "uint256",
          "name": "tokenId",
          "type": "uint256"
        }
      ],
      "name": "transferFrom",
      "outputs": [],
      "stateMutability": "payable",
      "type": "function"
    },
    {
      "inputs": [
        {
          "internalType": "address",
          "name": "newOwner",
          "type": "address"
        }
      ],
      "name": "transferOwnership",
      "outputs": [],
      "stateMutability": "nonpayable",
      "type": "function"
    },
    {
      "inputs": [],
      "name": "withdraw",
      "outputs": [],
      "stateMutability": "payable",
      "type": "function"
    },
    {
      "inputs": [],
      "name": "wlCost",
      "outputs": [
        {
          "internalType": "uint256",
          "name": "",
          "type": "uint256"
        }
      ],
      "stateMutability": "view",
      "type": "function"
    },
    {
      "inputs": [],
      "name": "wlMint",
      "outputs": [
        {
          "internalType": "bool",
          "name": "",
          "type": "bool"
        }
      ],
      "stateMutability": "view",
      "type": "function"
    }
  ],
  "bytecode": "0x60c06040526005608081905264173539b7b760d91b60a09081526200002891600b91906200023c565b50604051806060016040528060368152602001620028c16036913980516200005991600c916020909101906200023c565b506658d15e17628000600d8190556000600e819055600f91909155611a0a6010556005601181905560128190556013556014805463ffffffff19166301010100179055601555348015620000ac57600080fd5b50604051620028f7380380620028f7833981016040819052620000cf91620002f8565b6040805180820182526011815270546865205261696e626f7720547269626560781b60208083019182528351808501909452600684526515149513919560d21b90840152815191929162000126916002916200023c565b5080516200013c9060039060208401906200023c565b50506001600055506200014f3362000166565b60016009556200015f81620001b8565b5062000411565b600880546001600160a01b038381166001600160a01b0319831681179093556040519116919082907f8be0079c531659141344cd1fd0a4f28419497f9722a3daafe3b4186f6b6457e090600090a35050565b620001c2620001db565b8051620001d790600a9060208401906200023c565b5050565b6008546001600160a01b031633146200023a5760405162461bcd60e51b815260206004820181905260248201527f4f776e61626c653a2063616c6c6572206973206e6f7420746865206f776e6572604482015260640160405180910390fd5b565b8280546200024a90620003d4565b90600052602060002090601f0160209004810192826200026e5760008555620002b9565b82601f106200028957805160ff1916838001178555620002b9565b82800160010185558215620002b9579182015b82811115620002b95782518255916020019190600101906200029c565b50620002c7929150620002cb565b5090565b5b80821115620002c75760008155600101620002cc565b634e487b7160e01b600052604160045260246000fd5b600060208083850312156200030c57600080fd5b82516001600160401b03808211156200032457600080fd5b818501915085601f8301126200033957600080fd5b8151818111156200034e576200034e620002e2565b604051601f8201601f19908116603f01168101908382118183101715620003795762000379620002e2565b8160405282815288868487010111156200039257600080fd5b600093505b82841015620003b6578484018601518185018701529285019262000397565b82841115620003c85760008684830101525b98975050505050505050565b600181811c90821680620003e957607f821691505b602082108114156200040b57634e487b7160e01b600052602260045260246000fd5b50919050565b6124a080620004216000396000f3fe6080604052600436106102c95760003560e01c80637f9fa41111610175578063c87b56dd116100dc578063e5170b1611610095578063f12f6d5d1161006f578063f12f6d5d146107ff578063f2c4ce1e1461081f578063f2fde38b1461083f578063f3257cdd1461085f57600080fd5b8063e5170b1614610780578063e985e9c514610796578063f0539802146107df57600080fd5b8063c87b56dd146106d4578063d5abeb01146106f4578063d70a28d11461070a578063da3ef23f14610720578063dc33e68114610740578063e268e4d31461076057600080fd5b8063a6e566b11161012e578063a6e566b114610657578063aeeae3a61461066d578063b3ab66b014610683578063b88d4fde14610696578063bd7a1998146106a9578063c6682862146106bf57600080fd5b80637f9fa411146105a457806383a076be146105c45780638da5cb5b146105e4578063940cd05b1461060257806395d89b4114610622578063a22cb4651461063757600080fd5b806333bc1c5c1161023457806355f804b3116101ed5780636c0360eb116101c75780636c0360eb1461053a57806370a082311461054f578063715018a61461056f5780637cb647591461058457600080fd5b806355f804b3146104e05780635c975abb146105005780636352211e1461051a57600080fd5b806333bc1c5c146104455780633ccfd60b1461046657806342842e0e1461046e57806344a0d68a1461048157806345c490c0146104a157806351830227146104c157600080fd5b806313faede61161028657806313faede6146103a7578063149835a0146103cb57806318160ddd146103eb578063226fe1c01461040957806323b872dd1461041c5780632eb4a7ab1461042f57600080fd5b806301ffc9a7146102ce57806302329a291461030357806306fdde0314610325578063081812fc14610347578063081c8c441461037f578063095ea7b314610394575b600080fd5b3480156102da57600080fd5b506102ee6102e9366004611ea3565b61087f565b60405190151581526020015b60405180910390f35b34801561030f57600080fd5b5061032361031e366004611ed5565b6108d1565b005b34801561033157600080fd5b5061033a6108ec565b6040516102fa9190611f48565b34801561035357600080fd5b50610367610362366004611f5b565b61097e565b6040516001600160a01b0390911681526020016102fa565b34801561038b57600080fd5b5061033a6109c2565b6103236103a2366004611f8b565b610a50565b3480156103b357600080fd5b506103bd600d5481565b6040519081526020016102fa565b3480156103d757600080fd5b506103236103e6366004611f5b565b610af0565b3480156103f757600080fd5b506103bd600154600054036000190190565b610323610417366004611fb5565b610afd565b61032361042a366004612034565b610e78565b34801561043b57600080fd5b506103bd60155481565b34801561045157600080fd5b506014546102ee906301000000900460ff1681565b610323611009565b61032361047c366004612034565b61107b565b34801561048d57600080fd5b5061032361049c366004611f5b565b611096565b3480156104ad57600080fd5b506103236104bc366004611ed5565b6110a3565b3480156104cd57600080fd5b506014546102ee90610100900460ff1681565b3480156104ec57600080fd5b506103236104fb3660046120fc565b6110c7565b34801561050c57600080fd5b506014546102ee9060ff1681565b34801561052657600080fd5b50610367610535366004611f5b565b6110e6565b34801561054657600080fd5b5061033a6110f1565b34801561055b57600080fd5b506103bd61056a366004612145565b6110fe565b34801561057b57600080fd5b5061032361114d565b34801561059057600080fd5b5061032361059f366004611f5b565b61115f565b3480156105b057600080fd5b506014546102ee9062010000900460ff1681565b3480156105d057600080fd5b506103236105df366004612160565b61116c565b3480156105f057600080fd5b506008546001600160a01b0316610367565b34801561060e57600080fd5b5061032361061d366004611ed5565b61121b565b34801561062e57600080fd5b5061033a61123d565b34801561064357600080fd5b5061032361065236600461218c565b61124c565b34801561066357600080fd5b506103bd60135481565b34801561067957600080fd5b506103bd60125481565b610323610691366004611f5b565b6112b8565b6103236106a43660046121b6565b611504565b3480156106b557600080fd5b506103bd60115481565b3480156106cb57600080fd5b5061033a61154e565b3480156106e057600080fd5b5061033a6106ef366004611f5b565b61155b565b34801561070057600080fd5b506103bd60105481565b34801561071657600080fd5b506103bd600f5481565b34801561072c57600080fd5b5061032361073b3660046120fc565b6116cb565b34801561074c57600080fd5b506103bd61075b366004612145565b6116e6565b34801561076c57600080fd5b5061032361077b366004611f5b565b6116f1565b34801561078c57600080fd5b506103bd600e5481565b3480156107a257600080fd5b506102ee6107b1366004612232565b6001600160a01b03918216600090815260076020908152604080832093909416825291909152205460ff1690565b3480156107eb57600080fd5b506103236107fa366004611f5b565b6116fe565b34801561080b57600080fd5b5061032361081a366004611f5b565b61170b565b34801561082b57600080fd5b5061032361083a3660046120fc565b611718565b34801561084b57600080fd5b5061032361085a366004612145565b611733565b34801561086b57600080fd5b5061032361087a366004611ed5565b6117a9565b60006301ffc9a760e01b6001600160e01b0319831614806108b057506380ac58cd60e01b6001600160e01b03198316145b806108cb5750635b5e139f60e01b6001600160e01b03198316145b92915050565b6108d96117cf565b6014805460ff1916911515919091179055565b6060600280546108fb9061225c565b80601f01602080910402602001604051908101604052809291908181526020018280546109279061225c565b80156109745780601f1061094957610100808354040283529160200191610974565b820191906000526020600020905b81548152906001019060200180831161095757829003601f168201915b5050505050905090565b600061098982611829565b6109a6576040516333d1c03960e21b815260040160405180910390fd5b506000908152600660205260409020546001600160a01b031690565b600c80546109cf9061225c565b80601f01602080910402602001604051908101604052809291908181526020018280546109fb9061225c565b8015610a485780601f10610a1d57610100808354040283529160200191610a48565b820191906000526020600020905b815481529060010190602001808311610a2b57829003601f168201915b505050505081565b6000610a5b826110e6565b9050336001600160a01b03821614610a9457610a7781336107b1565b610a94576040516367d9dca160e11b815260040160405180910390fd5b60008281526006602052604080822080546001600160a01b0319166001600160a01b0387811691821790925591518593918516917f8c5be1e5ebec7d5bd14f71427d1e84f3dd0314c0f7b2291e5b200ac8c7c3b92591a4505050565b610af86117cf565b601055565b610b0561185e565b60145460ff1615610b575760405162461bcd60e51b81526020600482015260176024820152761bdbdc1cc818dbdb9d1c9858dd081a5cc81c185d5cd959604a1b60448201526064015b60405180910390fd5b60145462010000900460ff16610baf5760405162461bcd60e51b815260206004820152601960248201527f776c4d696e74204861736e2774207374617274656420796574000000000000006044820152606401610b4e565b610c24828280806020026020016040519081016040528093929190818152602001838360200280828437600092019190915250506015546040516bffffffffffffffffffffffff193360601b1660208201529092506034019050604051602081830303815290604052805190602001206118b8565b610c705760405162461bcd60e51b815260206004820152601860248201527f20596f7520617265206e6f742077686974656c697374656400000000000000006044820152606401610b4e565b6000610c83600154600054036000190190565b905060125484610cbc610c933390565b6001600160a01b03166000908152600560205260409081902054901c67ffffffffffffffff1690565b610cc691906122ad565b1115610d145760405162461bcd60e51b815260206004820152601b60248201527f4d6178204e4654205065722057616c6c657420657863656564656400000000006044820152606401610b4e565b60008411610d345760405162461bcd60e51b8152600401610b4e906122c5565b601054610d4185836122ad565b1115610d7c5760405162461bcd60e51b815260206004820152600a60248201526915d94814dbdb191bdd5d60b21b6044820152606401610b4e565b601354841115610dce5760405162461bcd60e51b815260206004820152601860248201527f6d6178206d696e742070657220547820657863656564656400000000000000006044820152606401610b4e565b600184610dda33610c93565b610de491906122ad565b11158015610dfe575083600e54610dfb91906122fc565b34105b15610e1c5760405163356680b760e01b815260040160405180910390fd5b600184610e2833610c93565b610e3291906122ad565b118015610e405750600f5434105b15610e5e5760405163356680b760e01b815260040160405180910390fd5b610e6833856118ce565b50610e736001600955565b505050565b6000610e83826118e8565b9050836001600160a01b0316816001600160a01b031614610eb65760405162a1148160e81b815260040160405180910390fd5b60008281526006602052604090208054338082146001600160a01b03881690911417610f0357610ee686336107b1565b610f0357604051632ce44b5f60e11b815260040160405180910390fd5b6001600160a01b038516610f2a57604051633a954ecd60e21b815260040160405180910390fd5b8015610f3557600082555b6001600160a01b038681166000908152600560205260408082208054600019019055918716808252919020805460010190554260a01b17600160e11b17600085815260046020526040902055600160e11b8316610fc05760018401600081815260046020526040902054610fbe576000548114610fbe5760008181526004602052604090208490555b505b83856001600160a01b0316876001600160a01b03167fddf252ad1be2c89b69c2b068fc378daa952ba7f163c4a11628f55a4df523b3ef60405160405180910390a4505050505050565b6110116117cf565b61101961185e565b604051600090339047908381818185875af1925050503d806000811461105b576040519150601f19603f3d011682016040523d82523d6000602084013e611060565b606091505b505090508061106e57600080fd5b506110796001600955565b565b610e7383838360405180602001604052806000815250611504565b61109e6117cf565b600d55565b6110ab6117cf565b60148054911515620100000262ff000019909216919091179055565b6110cf6117cf565b80516110e290600a906020840190611df4565b5050565b60006108cb826118e8565b600a80546109cf9061225c565b60006001600160a01b038216611127576040516323d3ad8160e21b815260040160405180910390fd5b506001600160a01b031660009081526005602052604090205467ffffffffffffffff1690565b6111556117cf565b6110796000611951565b6111676117cf565b601555565b6111746117cf565b61117c61185e565b6000821161119c5760405162461bcd60e51b8152600401610b4e906122c5565b60006111af600154600054036000190190565b6010549091506111bf84836122ad565b11156112065760405162461bcd60e51b81526020600482015260166024820152751b585e08139195081b1a5b5a5d08195e18d95959195960521b6044820152606401610b4e565b61121082846118ce565b506110e26001600955565b6112236117cf565b601480549115156101000261ff0019909216919091179055565b6060600380546108fb9061225c565b3360008181526007602090815260408083206001600160a01b03871680855290835292819020805460ff191686151590811790915590519081529192917f17307eab39ab6107e8899845ad3d59bd9653f200f220920489ca2b5937696c31910160405180910390a35050565b6112c061185e565b60145460ff161561130d5760405162461bcd60e51b81526020600482015260176024820152761bdbdc1cc818dbdb9d1c9858dd081a5cc81c185d5cd959604a1b6044820152606401610b4e565b6014546301000000900460ff166113665760405162461bcd60e51b815260206004820152601760248201527f53616c65204861736e27742073746172746564207965740000000000000000006044820152606401610b4e565b6000611379600154600054036000190190565b90506000821161139b5760405162461bcd60e51b8152600401610b4e906122c5565b6011548211156113ed5760405162461bcd60e51b815260206004820152601b60248201527f6d6178206d696e7420616d6f756e7420545820657863656564656400000000006044820152606401610b4e565b6010546113fa83836122ad565b11156114355760405162461bcd60e51b815260206004820152600a60248201526915d94814dbdb191bdd5d60b21b6044820152606401610b4e565b6011548261144233610c93565b61144c91906122ad565b111561149a5760405162461bcd60e51b815260206004820152601c60248201527f204d6178204e4654205065722057616c6c6574206578636565646564000000006044820152606401610b4e565b81600d546114a891906122fc565b3410156114ec5760405162461bcd60e51b8152602060048201526012602482015271696e73756666696369656e742066756e647360701b6044820152606401610b4e565b6114f633836118ce565b506115016001600955565b50565b61150f848484610e78565b6001600160a01b0383163b156115485761152b848484846119a3565b611548576040516368d2bf6b60e11b815260040160405180910390fd5b50505050565b600b80546109cf9061225c565b606061156682611829565b6115cb5760405162461bcd60e51b815260206004820152603060248201527f455243373231414d657461646174613a2055524920717565727920666f72206e60448201526f37b732bc34b9ba32b73a103a37b5b2b760811b6064820152608401610b4e565b601454610100900460ff1661166c57600c80546115e79061225c565b80601f01602080910402602001604051908101604052809291908181526020018280546116139061225c565b80156116605780601f1061163557610100808354040283529160200191611660565b820191906000526020600020905b81548152906001019060200180831161164357829003601f168201915b50505050509050919050565b6000611676611a9b565b9050600081511161169657604051806020016040528060008152506116c4565b806116a084611aaa565b600b6040516020016116b49392919061231b565b6040516020818303038152906040525b9392505050565b6116d36117cf565b80516110e290600b906020840190611df4565b60006108cb82610c93565b6116f96117cf565b601155565b6117066117cf565b601255565b6117136117cf565b600f55565b6117206117cf565b80516110e290600c906020840190611df4565b61173b6117cf565b6001600160a01b0381166117a05760405162461bcd60e51b815260206004820152602660248201527f4f776e61626c653a206e6577206f776e657220697320746865207a65726f206160448201526564647265737360d01b6064820152608401610b4e565b61150181611951565b6117b16117cf565b6014805491151563010000000263ff00000019909216919091179055565b6008546001600160a01b031633146110795760405162461bcd60e51b815260206004820181905260248201527f4f776e61626c653a2063616c6c6572206973206e6f7420746865206f776e65726044820152606401610b4e565b60008160011115801561183d575060005482105b80156108cb575050600090815260046020526040902054600160e01b161590565b600260095414156118b15760405162461bcd60e51b815260206004820152601f60248201527f5265656e7472616e637947756172643a207265656e7472616e742063616c6c006044820152606401610b4e565b6002600955565b6000826118c58584611b47565b14949350505050565b6110e2828260405180602001604052806000815250611b8c565b600081806001116119385760005481101561193857600081815260046020526040902054600160e01b8116611936575b806116c4575060001901600081815260046020526040902054611918565b505b604051636f96cda160e11b815260040160405180910390fd5b600880546001600160a01b038381166001600160a01b0319831681179093556040519116919082907f8be0079c531659141344cd1fd0a4f28419497f9722a3daafe3b4186f6b6457e090600090a35050565b604051630a85bd0160e11b81526000906001600160a01b0385169063150b7a02906119d89033908990889088906004016123df565b602060405180830381600087803b1580156119f257600080fd5b505af1925050508015611a22575060408051601f3d908101601f19168201909252611a1f9181019061241c565b60015b611a7d573d808015611a50576040519150601f19603f3d011682016040523d82523d6000602084013e611a55565b606091505b508051611a75576040516368d2bf6b60e11b815260040160405180910390fd5b805181602001fd5b6001600160e01b031916630a85bd0160e11b1490505b949350505050565b6060600a80546108fb9061225c565b60606000611ab783611bf9565b600101905060008167ffffffffffffffff811115611ad757611ad7612070565b6040519080825280601f01601f191660200182016040528015611b01576020820181803683370190505b5090508181016020015b600019016f181899199a1a9b1b9c1cb0b131b232b360811b600a86061a8153600a8504945084611b3a57611b3f565b611b0b565b509392505050565b600081815b8451811015611b3f57611b7882868381518110611b6b57611b6b612439565b6020026020010151611cd1565b915080611b848161244f565b915050611b4c565b611b968383611cfd565b6001600160a01b0383163b15610e73576000548281035b611bc060008683806001019450866119a3565b611bdd576040516368d2bf6b60e11b815260040160405180910390fd5b818110611bad578160005414611bf257600080fd5b5050505050565b60008072184f03e93ff9f4daa797ed6e38ed64bf6a1f0160401b8310611c385772184f03e93ff9f4daa797ed6e38ed64bf6a1f0160401b830492506040015b6d04ee2d6d415b85acef81000000008310611c64576d04ee2d6d415b85acef8100000000830492506020015b662386f26fc100008310611c8257662386f26fc10000830492506010015b6305f5e1008310611c9a576305f5e100830492506008015b6127108310611cae57612710830492506004015b60648310611cc0576064830492506002015b600a83106108cb5760010192915050565b6000818310611ced5760008281526020849052604090206116c4565b5060009182526020526040902090565b60005481611d1e5760405163b562e8dd60e01b815260040160405180910390fd5b6001600160a01b03831660008181526005602090815260408083208054680100000000000000018802019055848352600490915281206001851460e11b4260a01b178317905582840190839083907fddf252ad1be2c89b69c2b068fc378daa952ba7f163c4a11628f55a4df523b3ef8180a4600183015b818114611dcd57808360007fddf252ad1be2c89b69c2b068fc378daa952ba7f163c4a11628f55a4df523b3ef600080a4600101611d95565b5081611deb57604051622e076360e81b815260040160405180910390fd5b60005550505050565b828054611e009061225c565b90600052602060002090601f016020900481019282611e225760008555611e68565b82601f10611e3b57805160ff1916838001178555611e68565b82800160010185558215611e68579182015b82811115611e68578251825591602001919060010190611e4d565b50611e74929150611e78565b5090565b5b80821115611e745760008155600101611e79565b6001600160e01b03198116811461150157600080fd5b600060208284031215611eb557600080fd5b81356116c481611e8d565b80358015158114611ed057600080fd5b919050565b600060208284031215611ee757600080fd5b6116c482611ec0565b60005b83811015611f0b578181015183820152602001611ef3565b838111156115485750506000910152565b60008151808452611f34816020860160208601611ef0565b601f01601f19169290920160200192915050565b6020815260006116c46020830184611f1c565b600060208284031215611f6d57600080fd5b5035919050565b80356001600160a01b0381168114611ed057600080fd5b60008060408385031215611f9e57600080fd5b611fa783611f74565b946020939093013593505050565b600080600060408486031215611fca57600080fd5b83359250602084013567ffffffffffffffff80821115611fe957600080fd5b818601915086601f830112611ffd57600080fd5b81358181111561200c57600080fd5b8760208260051b850101111561202157600080fd5b6020830194508093505050509250925092565b60008060006060848603121561204957600080fd5b61205284611f74565b925061206060208501611f74565b9150604084013590509250925092565b634e487b7160e01b600052604160045260246000fd5b600067ffffffffffffffff808411156120a1576120a1612070565b604051601f8501601f19908116603f011681019082821181831017156120c9576120c9612070565b816040528093508581528686860111156120e257600080fd5b858560208301376000602087830101525050509392505050565b60006020828403121561210e57600080fd5b813567ffffffffffffffff81111561212557600080fd5b8201601f8101841361213657600080fd5b611a9384823560208401612086565b60006020828403121561215757600080fd5b6116c482611f74565b6000806040838503121561217357600080fd5b8235915061218360208401611f74565b90509250929050565b6000806040838503121561219f57600080fd5b6121a883611f74565b915061218360208401611ec0565b600080600080608085870312156121cc57600080fd5b6121d585611f74565b93506121e360208601611f74565b925060408501359150606085013567ffffffffffffffff81111561220657600080fd5b8501601f8101871361221757600080fd5b61222687823560208401612086565b91505092959194509250565b6000806040838503121561224557600080fd5b61224e83611f74565b915061218360208401611f74565b600181811c9082168061227057607f821691505b6020821081141561229157634e487b7160e01b600052602260045260246000fd5b50919050565b634e487b7160e01b600052601160045260246000fd5b600082198211156122c0576122c0612297565b500190565b6020808252601b908201527f6e65656420746f206d696e74206174206c656173742031204e46540000000000604082015260600190565b600081600019048311821515161561231657612316612297565b500290565b60008451602061232e8285838a01611ef0565b8551918401916123418184848a01611ef0565b8554920191600090600181811c908083168061235e57607f831692505b85831081141561237c57634e487b7160e01b85526022600452602485fd5b80801561239057600181146123a1576123ce565b60ff198516885283880195506123ce565b60008b81526020902060005b858110156123c65781548a8201529084019088016123ad565b505083880195505b50939b9a5050505050505050505050565b6001600160a01b038581168252841660208201526040810183905260806060820181905260009061241290830184611f1c565b9695505050505050565b60006020828403121561242e57600080fd5b81516116c481611e8d565b634e487b7160e01b600052603260045260246000fd5b600060001982141561246357612463612297565b506001019056fea26469706673582212207b3a44ff1da693e2e709a889df730862c948977b84264cfefa2dd42ccad70aea64736f6c63430008090033697066733a2f2f516d525239694274334573474a754a6234727a43414c4b4e696178724a356947634d6842537966715766766e64612f",
  "linkReferences": {},
  "deployedLinkReferences": {}
}